:020000040800F2
:10000000800700203102000897190008E71800084F
:100010009519000823060008F91D000800000000DB
:10002000000000000000000000000000091B0008A4
:100030002506000800000000991900080B1B0008A5
:100040004B0200084B0200084B0200084B0200085C
:100050004B0200084B0200084B0200084B0200084C
:100060004B0200084B0200084B0200084B0200083C
:100070004B0200084B0200084B0200084B0200082C
:100080004B0200084B0200084B0200084B0200081C
:100090004B0200084B0200084B0200084B0200080C
:1000A0004B0200084B0200084B0200084B020008FC
:1000B0004B0200084B0200084B0200084B020008EC
:1000C0004B0200084B0200084B0200084B020008DC
:1000D0004B0200084B0200084B0200084B020008CC
:1000E0004B0200084B0200084B0200084B020008BC
:1000F0004B020008A11B00084B0200084B0200083D
:100100004B0200084B0200084B0200084B0200089B
:100110004B0200084B0200084B0200084B0200088B
:100120004B0200084B0200084B0200084B0200087B
:100130004B0200084B0200084B0200084B0200086B
:100140004B0200084B0200084B0200084B0200085B
:100150004B0200084B0200084B0200084B0200084B
:100160004B0200084B0200084B0200084B0200083B
:100170004B0200084B0200084B0200080000000080
:100180004B0200084B02000800F002F800F041F8B2
:100190000AA090E8000C82448344AAF10107DA45E2
:1001A00001D100F036F8AFF2090EBAE80F0013F0F3
:1001B000010F18BFFB1A43F0010318476C1E000023
:1001C0008C1E0000103A24BF78C878C1FAD85207B4
:1001D00024BF30C830C144BF04680C6070470000C1
:1001E0000023002400250026103A28BF78C1FBD840
:1001F000520728BF30C148BF0B607047642900F028
:10020000F980002070471FB501F0FCFE1FBD10B53E
:1002100010BD00F0CCF91146FFF7F5FF01F0FEFD2F
:1002200000F0EAF903B4FFF7F2FF03BC00F0F2F9C3
:100230000948804709480047FEE7FEE7FEE7FEE77A
:10024000FEE7FEE7FEE7FEE7FEE7FEE704480549B6
:10025000054A064B70470000911B00088901000801
:100260008001002080070020800300208003002000
:1002700053EA020C00F069802DE9F04B4FF00006C4
:10028000002B1FBFB3FA83F503FA05F424FA05F631
:100290005E4012BF1643B2FA82F502FA05F4C5F1C8
:1002A00020051EBF22FA05FC44EA0C04203556EA5C
:1002B000044C4FEA144418BF641C4FF000084FF080
:1002C0000009904271EB030C39D3002919BFB1FA30
:1002D00081F701FA07F6B0FA80F700FA07F6C7F1DE
:1002E00020071EBF20FA07FC46EA0C062037B6FBA3
:1002F000F4FCA7EB0507103F07F01F0BCBF120061E
:100300000CFA0BFB2CFA06F644BFB3460026202F4E
:10031000A4BF5E464FF0000B5BEA060C08BF4FF02F
:10032000010B19EB0B09ABFB027C48EB0608C01B69
:1003300006FB02CC0BFB03CC71EB0C01C1E70B46B7
:10034000024641464846BDE8F08B13B54FF0000029
:100350004FF00001AFF30080BDE81C407047000083
:100360000FB41CB5084B06AA7B446946009005985B
:1003700000F005F904460020694600F013F9204614
:100380001CBC5DF814FB0000390200002DE9F041AF
:100390000E460446002020622046E168884730B3BC
:1003A000252805D0D4E901219047206A401CF2E7B6
:1003B000E168204600278847050018D0A5F14100D4
:1003C000192802D820354FF40067324629462046C6
:1003D0002760FFF713FF40B1012804D0F61D26F077
:1003E00007060836D8E7361DD6E72846DAE7206A3A
:1003F000BDE8F0812DE9F04106460024106875291A
:10040000314616A510D0AFF30080002802DA404232
:1004100013A507E031688A0701D512A502E0490754
:1004200004D511A5012401E0AFF3008000210A22C8
:1004300006F1240709E0B0FBF2FCB0FBF2F302FB8B
:100440001C00303078541846491C0028F3D123464C
:100450002A463046BDE8F04100F032B80000000006
:100460002D0000002B000000200000004FF00002D3
:1004700000B5134694469646203922BFA0E80C509A
:10048000A0E80C50B1F12001BFF4F7AF090728BF75
:10049000A0E80C5048BF0CC05DF804EB890028BFF1
:1004A00040F8042B08BF704748BF20F8022B11F01A
:1004B000804F18BF00F8012B704770477047704796
:1004C0002DE9F0470D4699469246044600F124086E
:1004D0000168880604D5E06921F01001216000E080
:1004E0000120A84201DD471B00E00027A1697A191D
:1004F00002EB0900081AA0612078C00602D4204649
:10050000AFF30080002608E0D4E901211AF80600C4
:100510009047206A401C761C20624E45F4DB207810
:10052000C0060AD52046AFF3008006E0D4E90121D9
:1005300030209047206A401C2062381EA7F1010736
:10054000F4DC07E0D4E9012118F805009047206A9F
:10055000401C2062281EA5F10105F3DC2046AFF304
:1005600000802078000602D50220BDE8F087012037
:10057000FBE7000001694A1C02610878704700B57A
:100580008FB0CDE901310021059105497944CDE9CC
:10059000031011466846FFF7F9FE0FB000BD0000DA
:1005A000E5FFFFFF0A6802F8010B0A607047754615
:1005B00000F02CF8AE4605006946534620F00700CF
:1005C000854618B020B5FFF741FEBDE820404FF04A
:1005D00000064FF000074FF000084FF0000B21F02D
:1005E0000701AC46ACE8C009ACE8C009ACE8C009FA
:1005F000ACE8C0098D46704710B50446AFF30080E3
:100600002046BDE81040FFF70DBE000000487047CF
:100610002001002001491820ABBEFEE726000200A1
:100620007047FEE77047000070B5044600F00CF913
:100630000546601C02D004480078044400F004F928
:10064000401BA042FAD370BD0C0000202DE9F84FEA
:10065000DFF8BCA10022012503264FF00F090AF1A3
:10066000040BAAF1040E00BF0B6805FA02F4234044
:10067000A34270D10F7907F00307012F01D0022F99
:1006800016D187684FEA420806FA08FC27EA0C07E9
:10069000D1F80CC00CFA08FC4CEA070CC0F808C0F2
:1006A0004768A7430C79C4F3001494403C4344606A
:1006B0000C79E443A4070AD0C4684FEA420C06FA56
:1006C0000CF7BC438F6807FA0CF72743C7600C7917
:1006D00004F00304022C12D1D40800EB840CDCF8E3
:1006E00020405707FF0E09FA07F824EA0804D1F85A
:1006F000108008FA07F848EA0408CCF8208004685B
:100700004FEA420C06FA0CF7BC430F7907F00307D7
:1007100007FA0CF7274307604C6814F4403F70D089
:100720003C4C276847F480472760246822F0030781
:1007300004F480440094384C07EB040CDCF80848BF
:1007400097074FEA177809FA08F7BC43334FB842C6
:1007500002D1002724E054E0314FB84201D10127F3
:100760001EE0304FB84201D1022719E02E4FB842A7
:1007700001D1032714E02D4FB84201D104270FE027
:100780002B4FB84201D105270AE02A4FB84201D1C8
:10079000062705E0284FB84201D1072700E00827C7
:1007A00007FA08F72743CCF80878DAF800405746EC
:1007B000D1F804C09C435FEACC2C00D51C433C60BC
:1007C000DBF800405F46D1F804C09C435FEA8C2C04
:1007D00000D51C433C60DEF800407746D1F804C0E9
:1007E0009C435FEA8C3C00D51C433C60084F083FAB
:1007F0003C68D1F804C09C435FEACC3C00D51C4364
:100800003C60521C102AFFF42FAFBDE8F88F0000A7
:10081000083C0140443802400030014000000240E2
:100820000004024000080240000C02400010024098
:100830000014024000180240001C02400AB181610D
:1008400070470904FBE7000001488068704700001A
:100850000C000020024881680278114481607047D2
:100860000C0000200B4810B5016841F400710160D4
:10087000016841F480610160016841F480710160A8
:10088000032000F08BF8002000F006F800F03EF89E
:10089000002010BD003C024010B5014688B0002287
:1008A0002D2000F05BF82D2000F04AF813480024BA
:1008B000016841F480710160006805A900F480704E
:1008C0000690684600F016F900F034F90C49400033
:1008D000B0FBF1F10C480B4A491E026040F2E732CE
:1008E000C0E90324C0E9011400F00FFE10B101209B
:1008F00008B010BD044800F037FEF9E74038024068
:1009000040420F0000200040D80000200B4882B079
:10091000016841F480410160006800F4804000906B
:100920000648001F016841F080510160006800F036
:1009300080500090072002B000F030B844380240E8
:10094000002809DB00F01F020121914040098000CE
:1009500000F1E020C0F8001170470000F0B40E4B29
:100960001B680C46C3F30223C3F10705042D00D90D
:100970000425191D072901D2002300E0DB1E0126F2
:1009800006FA05F1491E214099409E40761E164008
:100990003143F0BC01F031BA0CED00E0064900F043
:1009A000070208684FF6FF03184040EA0220034A96
:1009B00010430860704700000CED00E00000FA05ED
:1009C0002DE9F0470E46050065D0DFF81481D8F810
:1009D0000000F7B200F00700B04207D288F80070BC
:1009E000D8F8000000F00700B04254D128683D4C10
:1009F000810712D5400703D5206840F4E0502060FD
:100A00002878000703D5206840F460402060206803
:100A1000A96820F0F000084320602878C0072DD096
:100A2000304968680839012812D0022813D00328F9
:100A300011D00968890700292DDA216821F0030106
:100A400001432160FFF700FF814641F2883A0EE042
:100A500009688903EFE709688901ECE7FFF7F4FE0D
:100A6000A0EB0901514502D90320BDE8F0872068B9
:100A7000696800F00C00B0EB810FEFD1D8F80010DE
:100A8000404601F00701B14207D90770006800F045
:100A90000700B04201D00120E7E72878400705D5DC
:100AA0002068E96820F4E0500843206028780007B7
:100AB00006D52068296920F4604040EAC100206022
:100AC00000F058F82168084AC1F30311515CC8408E
:100AD0000649086006480068FFF7DEFE0020C4E70C
:100AE000003C0240083802400E2000081800002098
:100AF000100000200F2202600C4A136803F0030369
:100B00004360136803F0F0038360136803F4E05359
:100B1000C36012684FF4E05303EAD2020261044852
:100B2000006800F0070008607047000008380240C5
:100B3000003C02400448054900680968044AC1F3C2
:100B40008221515CC84070471800002008380240DC
:100B50001E2000080448054900680968044AC1F3DA
:100B60004231515CC84070471800002008380240EC
:100B70001E200008154810B5006810F00C0214483B
:100B800013D04110042A0FD0082A0ED10F4C241F75
:100B90002268236802F03F025B0207D52068C0F399
:100BA0008810A0FB010106E0084610BD2168C1F3D2
:100BB0008811A1FB00010023FFF75AFB2168C1F354
:100BC0000141491C4900B0FBF1F010BD083802405A
:100BD0000024F4002DE9F84F04006ED02078DFF8EF
:100BE0004C93C007A9F104054AD009F1040001683B
:100BF000C1F38101012908D00068C0F381000228F7
:100C00000AD1D9F80000400206D52868800337D5FC
:100C100060680028E1D033E06068B0F5803F10D014
:100C2000B0F5A02F286810D020F480302860286804
:100C300020F4802028606068A8B1FFF705FE064612
:100C40000DE0286840F48030F4E740F4802028600C
:100C5000F7E700BFFFF7F8FD801B642873D828680A
:100C60008003F7D50CE0FFF7EFFD064605E000BF77
:100C7000FFF7EAFD801B6428F0D828688003F7D4CA
:100C80002078DFF8AC8280074FF0000A3ED5A748F5
:100C9000001D016811F00C0F08D00068C0F381003E
:100CA00002280BD1D9F80000400207D42868800739
:100CB00016D5E068012800D112E033E1E068B8B150
:100CC0000120C8F80000FFF7BFFD064605E000BFA1
:100CD000FFF7BAFD801B0228C0D828688007F7D527
:100CE0002868216920F0F80040EAC10028600DE082
:100CF000C8F800A0FFF7A8FD064604E0FFF7A4FD32
:100D0000801B02281FD828688007F7D420780007A6
:100D100022D5864F87486169703771B10121016022
:100D2000FFF792FD064604E0FFF78EFD801B0228C8
:100D300009D838688007F7D50EE0C0F800A0FFF7A3
:100D400083FD064605E082E0FFF77EFD801B02285A
:100D50007DD838688007F7D42078400768D5DFF859
:100D6000CCB100270BF13C0BDBF80000C0000BD42A
:100D7000DBF8001041F08051CBF80010DBF80000E8
:100D8000012700F0805000906B4E3068C00510D4F1
:100D9000306840F480703060FFF756FD009005E049
:100DA000FFF752FD0099401A022850D83068C0055C
:100DB000F6D55E4EA0686C3601280FD00528306845
:100DC00010D020F001003060306820F00400306066
:100DD000A068B8B1FFF738FD00900FE0306840F030
:100DE0000100F4E740F004003060F7E7FFF72CFD66
:100DF0000099411A41F28830814266D830688007F4
:100E0000F4D50EE0FFF720FD009007E0FFF71CFD92
:100E10000099411A41F28830814256D830688007E3
:100E2000F4D42FB1DBF8001021F08051CBF8001082
:100E3000A069C8B33D49091D0968C1F381010229B0
:100E40004AD00228504607D0C8F8600000E03CE0D5
:100E5000FFF7FAFC04463BE04746C8F86000FFF79E
:100E6000F3FC064605E000BFFFF7EEFC801B0228FE
:100E70002BD828688001F7D4D4E907010843A16A78
:100E80002E4A490802EB0141626A41EA8211084395
:100E900094F82C1040EA0161C9F80010012038666E
:100EA000FFF7D2FC044606E03EE000BFFFF7CCFCB3
:100EB000001B022809D828688001F7D534E000BF5C
:100EC000FFF7C2FC001B022802D90320BDE8F88FFF
:100ED00028688001F4D427E00128F7D0D9F8000071
:100EE000E26900F4800191421CD1226A00F03F01C6
:100EF000914217D147F6C071626A0140B1EB821F7F
:100F000010D1A26A4FF0FF3300F4403103EB5202DC
:100F1000B1EB024F06D194F82C1000F07060B0EBEA
:100F2000016F01D00120D1E70020CFE70438024053
:100F300000004742800E4742007000400000FFFF63
:100F400070B5040009D0606A002540B12561656173
:100F5000A56294F8510040B10CE0012070BD6068BA
:100F6000B0F5827FF4D0E561F2E784F85050204676
:100F700000F044F8022084F851002068016821F054
:100F800040010160A088218900F4827001F40441CD
:100F90000843A18901F400610843217C01F00201AA
:100FA0000843217D01F001010843218B01F4007108
:100FB0000843217F01F03801084394F8201001F024
:100FC00080010843218D01F4005108432168086025
:100FD000A069042101EA104094F8241001F01001E6
:100FE0000843216848602068C16921F40061C1613B
:100FF0006565012084F85100002070BD10B586B0F1
:10100000044614216846FFF731FA134920688842E4
:1010100020D112480021026842F480520260006828
:1010200000F4805005900D481438026842F0010227
:101030000260006800F001000590E02000900220AE
:10104000CDE901010320039005200490694604487E
:10105000FFF7FCFA06B010BD0030014044380240F2
:10106000000002402DE9F84F0446406800259846EC
:1010700016460F464FF0040BB0F5827F01D1A068F1
:1010800088B194F85000012818D0012084F850004D
:10109000FFF7DAFB814694F851004FF0000A01286F
:1010A0000ED0022582E084F851B013460A4620464D
:1010B000CDF8008000F036F9BDE8F88F0220FBE79C
:1010C000002F72D0002E70D084F851B0C4F854A014
:1010D000A763A687E687C4F830A0A4F834A0A4F8D4
:1010E00036A0C4F840A0C4F844A0A068B0F5004FF2
:1010F00009D12068016821F0400101602068016881
:1011000021F48041016020680168490603D4016828
:1011100041F040010160E068D8B139E020688168A1
:10112000C90709D0007BA16B0870A06B401CA063AD
:10113000E08F401EE0870CE0FFF786FBA0EB090183
:10114000414503D3B8F1FF3F03D036E0B8F1000FBB
:1011500033D0E08F0028E1D11DE020688168C90705
:1011600009D0C068A16B0880A06B801CA063E08FD1
:10117000401EE0870CE0FFF767FBA0EB090141454B
:1011800003D3B8F1FF3F03D017E0B8F1000F14D03C
:10119000E08F0028E1D14A464146204600F0FDFBA1
:1011A00008B120206065606D00B10125012084F840
:1011B000510084F850A028467EE70325F6E72DE984
:1011C000F84F044690F8500000271D461646894601
:1011D00001280DD04FF0010B84F850B0FFF734FB1D
:1011E000804694F85100BA46012804D0022793E0C3
:1011F0000220BDE8F88FB9F1000F73D0002E71D036
:10120000032084F85100C4F854A0C4F83090A68696
:10121000E686C4F838A0A4F83CA0A4F83EA0C4F820
:1012200044A0C4F840A0A068B0F5004F09D12068E0
:10123000016821F0400101602068016841F48041AB
:10124000016020680168490603D4016841F040014B
:101250000160E068B0F5006F606803D030B3012E24
:1012600024D041E008B1012E1CD1206B21680088F8
:10127000C86006E020688168890709D5216B098864
:10128000C160206B801C2063E08E401EE08609E078
:10129000FFF7DAFAA0EB0800A84202D3681C01D0DD
:1012A00031E07DB3E08E0028E4D120E0206B21689E
:1012B0000078087306E020688168890709D5216BEA
:1012C00009780173206B401C2063E08E401EE0868D
:1012D0000AE0FFF7B9FAA0EB0800A84203D3681CA4
:1012E00002D010E017E06DB1E08E0028E3D1424655
:1012F0002946204600F080FB08B120206065A068E8
:1013000018B106E0FFE7032706E02068C16880689F
:101310000090606D00B1012784F851B084F850A0AE
:10132000384666E72DE9F84F044690F8500000274C
:101330000A9E1D4692468B464FF0010901280ED0A9
:10134000012084F85000FFF77FFA804694F851009E
:10135000616801280CD0B1F5827F07D102E002203C
:10136000BDE8F88FA16809B9042801D00227C2E0BE
:10137000BBF1000F27D0BAF1000F24D01DB394F8B1
:101380005100042802D0052084F851000020606537
:10139000C4F838A0E587A587C4F830B0E586A586EF
:1013A0002064606420680168490603D4016841F044
:1013B00040010160E068B0F5006F606805D0E8B3F7
:1013C000012D46D07FE0012795E008B1012D39D1EC
:1013D000206B21680088C860206B801C2063E08E31
:1013E000401EE0862EE02068816889070FD5E18ED7
:1013F00069B1B9F1010F0AD1216B0988C160206B75
:10140000801C2063E08E401EE0864FF000092068BB
:101410008168C9070CD0E18F51B1C068A16B088009
:10142000A06B801CA063E08F401EE0874FF0010995
:10143000FFF70AFAA0EB0800B04200E009E001D390
:10144000701C50D1E08E0028CDD1E08F0028CAD189
:101450003FE0206B216800780873206B401C2063FC
:10146000E08E401EE0862EE02068816889070FD557
:10147000E18E69B1B9F1010F0AD1216B09780173CD
:10148000206B401C2063E08E401EE0864FF0000978
:1014900020688168C9070CD0E18F51B1C068A16B89
:1014A0000870A06B401CA063E08F401EE0874FF0E7
:1014B0000109FFF7C9F9A0EB0800B04202D3701C84
:1014C00001D010E07EB1E08E0028CDD1E08F002861
:1014D000CAD142463146204600F08EFA28B1012793
:1014E0002020606507E0032705E0A06818B92068A0
:1014F000C16880680090012084F85100002084F8C1
:10150000500038462CE77047704710B5040003D0F0
:1015100094F83D0010B107E0012010BD002084F8D0
:101520003C00204600F01EF8022084F83D00211DFA
:10153000206800F03BFB012084F8460084F83E0060
:1015400084F83F0084F8400084F8410084F84200A9
:1015500084F8430084F8440084F8450084F83D0092
:10156000002010BD7047000090F83D10012901D007
:1015700001207047022180F83D100168CA6842F0DE
:101580000102CA6000681149884214D0B0F1804F4E
:1015900011D00F4988420ED00E4988420BD00E4917
:1015A000884208D00D49884205D00D49884202D0B2
:1015B0000C49884204D1816801F00701062903D053
:1015C000016841F001010160002070470000014006
:1015D0000004004000080040000C004000040140EE
:1015E0000040014000180040704770B50446006894
:1015F00001694FF00005C943890715D4C168C94383
:10160000890711D4E91E01610120207720688069D3
:101610008007204602D0FFF7E7FF04E000F098F8CB
:10162000204600F096F8257720680169C9434907EC
:1016300017D4C168C943490713D46FF0040101618D
:10164000022020772068806910F4407F204602D075
:10165000FFF7CAFF04E000F07BF8204600F079F8BD
:10166000257720680169C943090716D4C168C943B1
:10167000090712D46FF00801016104202077206867
:10168000C0698007204602D0FFF7AEFF04E000F0FB
:101690005FF8204600F05DF8257720680169C943AE
:1016A000C90617D4C168C943C90613D46FF0100125
:1016B0000161082020772068C06910F4407F20462F
:1016C00002D0FFF791FF04E000F042F8204600F05E
:1016D00040F8257720680169C943C90708D1C16866
:1016E000C943C90704D1891E0161204600F032F8C0
:1016F00020680169C943090609D4C168C9430906BC
:1017000005D46FF0800101612046FFF7FCFE2068E0
:101710000169C943490609D4C168C943490605D4CA
:101720006FF040010161204600F01EF82068016959
:10173000C94389060BD4C168C943890607D46FF031
:10174000200101612046BDE87040FFF7DDBE70BD9D
:101750007047704700680349884201D1FFF77AB8A3
:101760007047000000200040704770B5040004D0AE
:1017700094F83D00002510B106E0012070BD84F80A
:101780003C50204600F022F8242084F83D002068D8
:10179000C16821F40051C160204600F06BFA206856
:1017A000016921F4904101612068416921F02A0119
:1017B00041612068C16841F40051C1602564202066
:1017C00084F83D0084F83E00002070BD10B586B05E
:1017D000044614216846FEF749FE134920688842F2
:1017E00020D112480021026842F020020260006805
:1017F00000F0200005900D481438026842F0040201
:101800000260006800F004000590C02000900220F3
:10181000CDE90101032003900820049069460448A3
:10182000FEF714FF06B010BD00140140443802401A
:10183000000802402DE9F843044690F83D001F4699
:1018400016460D4620284CD1C5B1BEB194F83C00D7
:10185000012846D0012084F83C004FF00008C4F86D
:101860004080212084F83D00FEF7EEFFA6848146EB
:10187000E684A068B0F5805F03D004E00120BDE8F5
:10188000F883206928B12E465FF0000584F83C807B
:101890000EE00026FAE78021204600F071FAA0B998
:1018A000AEB116F8010B21684860E08C401EE08460
:1018B000E08C4B464FF0000200970028EBD14FF030
:1018C0004001204600F05CFA30B10320D7E735F83C
:1018D000020BC0F30800E6E7202084F83D0000205A
:1018E000CDE70220CBE7FEE730B587B0142168468C
:1018F000FEF7BCFD15480024016841F010010160AD
:10190000016801F010010591016841F001010160D9
:10191000016801F001010591016841F004010160D5
:1019200000680B4D00F004000590002208212846B5
:10193000FEF784FF082000900120CDE901046946EC
:1019400028460394FEF782FE07B030BD30380240CF
:10195000001002400E4810B50C4901604FF482712E
:10196000416000218160C1604FF400720161C0E9F3
:101970000512C1610162416281620A21C162FFF701
:10198000DFFA002801D072B6FEE710BD003001403A
:101990003C000020FEE7FEE77047F8B504464068CB
:1019A0004FF48273984221D1A0684FF48065B0F55E
:1019B000004F01D0A8420AD12068066826F04006F0
:1019C00006606068984211D1A068A8420ED00092CB
:1019D0000B4600228021204600F03AF8002804D06F
:1019E000606D40F0200060650320F8BD00920B465A
:1019F00000220121EFE7000038B504461248134BDE
:101A00000068B0FBF3F04FF47A73584300906068BD
:101A1000B0F5827F0DD10B46009200228021204636
:101A200000F016F870B1606D40F020006065032092
:101A300038BD009830B1401E009020688068C043D7
:101A40000006F6D5002038BD1800002000366E01D3
:101A50002DE9F8431E46914688460446089DFEF748
:101A6000F3FE401B351AFEF7EFFE074625480068D7
:101A7000C0F3CB30684338E0701C37D0FEF7E4FE8B
:101A8000C01BA84203D215B1009860B32CE02068B7
:101A9000416821F0E00141606068B0F5827F0BD1C0
:101AA000A068B0F5004F02D0B0F5806F04D1206877
:101AB000016821F040010160A06AB0F5005F09D122
:101AC0002068016821F4005101602068016841F438
:101AD00000510160012084F85100002084F850007A
:101AE0000320BDE8F8830025401E0090206881682F
:101AF00038EA010004D000214945BDD10020F0E7BB
:101B00000121F9E7180000207047704710B592B026
:101B100030216846FEF7AAFC14210CA8FEF7A6FCAB
:101B200019480024016841F080510160006800F00C
:101B3000805011901548016841F4804101600068AF
:101B4000069400F480401190022000900120039040
:101B5000102004906846FFF73DF808B172B6FEE722
:101B60000F20CDE90C044FF4A050CDE90E404FF406
:101B70008050109000210CA8FEF722FF002801D011
:101B800072B6FEE712B010BD40380240007000404F
:101B90000248016841F470010160704788ED00E07F
:101BA0000148FFF722BD0000D8000020F0B5026810
:101BB000254C264D264E274F274B4FF0804CA042F8
:101BC00009D0604507D0A84205D0B04203D0B84242
:101BD00001D0984204D122F0700E4A6842EA0E0207
:101BE000A0421BD0604519D0A84217D0B04215D0F2
:101BF000B84213D0984211D0184DA8420ED0184DBB
:101C0000A8420BD0174DA84208D0174DA84205D0C6
:101C1000164DA84202D0164DA84203D122F44075B9
:101C2000CA682A434D6922F080022A4302608A680A
:101C3000C2620A688262A04201D0984201D1096959
:101C4000016301214161F0BD00000140000400403A
:101C500000080040000C004000040140004001402A
:101C6000004401400048014000180040001C0040B2
:101C70000020004070B5044600680169E26821F464
:101C80004051114301612169A068E269084361691B
:101C9000114308432168CA6849F20C639A4302431E
:101CA000CA6020684169A26921F440711143416111
:101CB00031492068884202D03049884202D1FEF77B
:101CC00049FF01E0FEF736FFE26900231921642590
:101CD0003226B2F5004F626828D0A0FB0101930FB5
:101CE0009200FEF7C5FA0146B0FBF5F06FF018025E
:101CF000504301EB800006EB0010B0FBF5F000F064
:101D0000F002B1FBF5F002EB0012B1FBF5F06FF061
:101D10001803584301EB800006EB0010B0FBF5F010
:101D200000F00F0021681044886070BDA0FB010125
:101D300092185B41FEF79CFA0146B0FBF5F00201F8
:101D4000B1FBF5F06FF01803584301EB800006EB90
:101D5000C000B0FBF5F000F0F80002EB4002B1FB70
:101D6000F5F0584301EB800006EBC000B0FBF5F046
:101D700000F00700D6E70000001001400014014009
:101D80002DE9F041984617460E460446069D27E089
:101D9000681C25D02DB1FEF757FDA0EB0800A84226
:101DA0001ED920680C3050E8001F21F4D07140E8A3
:101DB0000012002AF5D12068143050E8001F21F0ED
:101DC000010140E80012002AF5D1202084F83D00EE
:101DD00084F83E00002084F83C000320BDE8F08138
:101DE0002068006836EA000004D00020B842CFD056
:101DF0000020F3E70120F9E7FEE70907090E0028B4
:101E000004DB00F1E02080F80014704700F00F00C0
:101E100000F1E02080F8141D70470000FEF722FD5D
:101E2000FFF774FEFFF760FDFFF794FD6648654914
:101E30000C2201604FF4E131416000218160C160FA
:101E4000C0E904128161C161FFF78FFC08B172B66D
:101E5000FEE75E4D002208212846FEF7EFFC5C4CB1
:101E6000202032232070172060705748022221461C
:101E70005838FFF7A4F9012208212846FEF7DEFCB6
:101E8000DFF844814FF0A90BA8F178084FF496765B
:101E90004FF0AB0904F1020A4FF47A7700220821CF
:101EA0002846FEF7CBFC484884F800B032230122D4
:101EB00047495838FFF783F94549434832230122FF
:101EC000891D5838FFF7CEF888F800000122082154
:101ED0002846FEF7B3FC3046FEF7A6FB0022082199
:101EE0002846FEF7ABFC3A4937488AF8009032237F
:101EF0000122891C5838FFF762F9354932483223EC
:101F0000012208315838FFF7ADF82F4901226E3908
:101F1000087008212846FEF791FC3046FEF784FB46
:101F2000002208212846FEF789FC2949AD20091D19
:101F300032230870244801225838FFF740F9244919
:101F40002148322301220A315838FFF78BF81E4905
:101F500001226439087008212846FEF76FFC3046DC
:101F6000FEF762FB1A481BA1801D027816487838DC
:101F7000FEF7F6F9144982B23B4678391248FFF76A
:101F800059FC134817A1083002780F486E38FEF745
:101F9000E7F90D4982B23B466E390B48FFF74AFC20
:101FA0000B4814A10A30027807486438FEF7D8F9C4
:101FB000054982B24FF4FA6364390348FFF73AFCEB
:101FC0006CE7000000140140940000200010024063
:101FD00000000020582D41786973203D20256420A1
:101FE0000A0D0000792D41786973203D2025642079
:101FF0000A0D00007A2D41786973203D2025642068
:102000000A0D00004FF04070E1EE100A704700002A
:102010000000000000000102030406070809000098
:102020000000010203040000482000080000002016
:102030001C000000C4010008642000081C000020EF
:1020400064070000E001000800000000000000003C
:10205000000000000100000010000000000000006F
:042060000024F40064
:040000050800018965
:00000001FF
