:020000040800F2
:1000000078070020310200080B1B0008D3160008F7
:10001000091B0008230600082D1D00080000000031
:100020000000000000000000000000000F1B00089E
:1000300025060008000000000D1B0008111B000829
:100040004B0200084B0200084B0200084B0200085C
:100050004B0200084B0200084B0200084B0200084C
:100060004B0200084B0200084B0200084B0200083C
:100070004B0200084B0200084B0200084B0200082C
:100080004B0200084B0200084B0200084B0200081C
:100090004B0200084B0200084B0200084B0200080C
:1000A0004B0200084B0200084B0200084B020008FC
:1000B0004B0200084B0200084B0200084B020008EC
:1000C0004B0200084B0200084B0200084B020008DC
:1000D0004B0200084B0200084B0200084B020008CC
:1000E0004B0200084B0200084B0200084B020008BC
:1000F0004B0200084B0200084B0200084B020008AC
:100100004B0200084B0200084B0200084B0200089B
:100110004B0200084B0200084B0200084B0200088B
:100120004B0200084B0200084B0200084B0200087B
:100130004B0200084B0200084B0200084B0200086B
:100140004B0200084B0200084B0200084B0200085B
:100150004B0200084B0200084B0200084B0200084B
:100160004B0200084B0200084B0200084B0200083B
:100170004B0200084B0200084B0200080000000080
:100180004B0200084B02000800F002F800F041F8B2
:100190000AA090E8000C82448344AAF10107DA45E2
:1001A00001D100F036F8AFF2090EBAE80F0013F0F3
:1001B000010F18BFFB1A43F001031847502300003A
:1001C00070230000103A24BF78C878C1FAD85207CB
:1001D00024BF30C830C144BF04680C6070470000C1
:1001E0000023002400250026103A28BF78C1FBD840
:1001F000520728BF30C148BF0B607047642900F028
:10020000F980002070471FB502F06EF91FBD10B5D0
:1002100010BD00F0CCF91146FFF7F5FF01F098FD95
:1002200000F0EAF903B4FFF7F2FF03BC00F0F2F9C3
:100230000948804709480047FEE7FEE7FEE7FEE77A
:10024000FEE7FEE7FEE7FEE7FEE7FEE704480549B6
:10025000054A064B70470000991B000889010008F9
:100260007801002078070020780300207803002020
:1002700053EA020C00F069802DE9F04B4FF00006C4
:10028000002B1FBFB3FA83F503FA05F424FA05F631
:100290005E4012BF1643B2FA82F502FA05F4C5F1C8
:1002A00020051EBF22FA05FC44EA0C04203556EA5C
:1002B000044C4FEA144418BF641C4FF000084FF080
:1002C0000009904271EB030C39D3002919BFB1FA30
:1002D00081F701FA07F6B0FA80F700FA07F6C7F1DE
:1002E00020071EBF20FA07FC46EA0C062037B6FBA3
:1002F000F4FCA7EB0507103F07F01F0BCBF120061E
:100300000CFA0BFB2CFA06F644BFB3460026202F4E
:10031000A4BF5E464FF0000B5BEA060C08BF4FF02F
:10032000010B19EB0B09ABFB027C48EB0608C01B69
:1003300006FB02CC0BFB03CC71EB0C01C1E70B46B7
:10034000024641464846BDE8F08B13B54FF0000029
:100350004FF00001AFF30080BDE81C407047000083
:100360000FB41CB5084B06AA7B446946009005985B
:1003700000F005F904460020694600F013F9204614
:100380001CBC5DF814FB0000390200002DE9F041AF
:100390000E460446002020622046E168884730B3BC
:1003A000252805D0D4E901219047206A401CF2E7B6
:1003B000E168204600278847050018D0A5F14100D4
:1003C000192802D820354FF40067324629462046C6
:1003D0002760FFF713FF40B1012804D0F61D26F077
:1003E00007060836D8E7361DD6E72846DAE7206A3A
:1003F000BDE8F0812DE9F04106460024106875291A
:10040000314616A510D0AFF30080002802DA404232
:1004100013A507E031688A0701D512A502E0490754
:1004200004D511A5012401E0AFF3008000210A22C8
:1004300006F1240709E0B0FBF2FCB0FBF2F302FB8B
:100440001C00303078541846491C0028F3D123464C
:100450002A463046BDE8F04100F032B80000000006
:100460002D0000002B000000200000004FF00002D3
:1004700000B5134694469646203922BFA0E80C509A
:10048000A0E80C50B1F12001BFF4F7AF090728BF75
:10049000A0E80C5048BF0CC05DF804EB890028BFF1
:1004A00040F8042B08BF704748BF20F8022B11F01A
:1004B000804F18BF00F8012B704770477047704796
:1004C0002DE9F0470D4699469246044600F124086E
:1004D0000168880604D5E06921F01001216000E080
:1004E0000120A84201DD471B00E00027A1697A191D
:1004F00002EB0900081AA0612078C00602D4204649
:10050000AFF30080002608E0D4E901211AF80600C4
:100510009047206A401C761C20624E45F4DB207810
:10052000C0060AD52046AFF3008006E0D4E90121D9
:1005300030209047206A401C2062381EA7F1010736
:10054000F4DC07E0D4E9012118F805009047206A9F
:10055000401C2062281EA5F10105F3DC2046AFF304
:1005600000802078000602D50220BDE8F087012037
:10057000FBE7000001694A1C02610878704700B57A
:100580008FB0CDE901310021059105497944CDE9CC
:10059000031011466846FFF7F9FE0FB000BD0000DA
:1005A000E5FFFFFF0A6802F8010B0A607047754615
:1005B00000F02CF8AE4605006946534620F00700CF
:1005C000854618B020B5FFF741FEBDE820404FF04A
:1005D00000064FF000074FF000084FF0000B21F02D
:1005E0000701AC46ACE8C009ACE8C009ACE8C009FA
:1005F000ACE8C0098D46704710B50446AFF30080E3
:100600002046BDE81040FFF70DBE000000487047CF
:100610001801002001491820ABBEFEE726000200A9
:100620007047FEE77047000070B5044600F014F90B
:100630000546601C02D004480078044400F00CF920
:10064000401BA042FAD370BD0C0000202DE9F84FEA
:10065000DFF8BCA10022012503264FF00F090AF1A3
:10066000040BAAF1040E00BF0B6805FA02F4234044
:10067000A34270D10F7907F00307012F01D0022F99
:1006800016D187684FEA420806FA08FC27EA0C07E9
:10069000D1F80CC00CFA08FC4CEA070CC0F808C0F2
:1006A0004768A7430C79C4F3001494403C4344606A
:1006B0000C79E443A4070AD0C4684FEA420C06FA56
:1006C0000CF7BC438F6807FA0CF72743C7600C7917
:1006D00004F00304022C12D1D40800EB840CDCF8E3
:1006E00020405707FF0E09FA07F824EA0804D1F85A
:1006F000108008FA07F848EA0408CCF8208004685B
:100700004FEA420C06FA0CF7BC430F7907F00307D7
:1007100007FA0CF7274307604C6814F4403F70D089
:100720003C4C276847F480472760246822F0030781
:1007300004F480440094384C07EB040CDCF80848BF
:1007400097074FEA177809FA08F7BC43334FB842C6
:1007500002D1002724E054E0314FB84201D10127F3
:100760001EE0304FB84201D1022719E02E4FB842A7
:1007700001D1032714E02D4FB84201D104270FE027
:100780002B4FB84201D105270AE02A4FB84201D1C8
:10079000062705E0284FB84201D1072700E00827C7
:1007A00007FA08F72743CCF80878DAF800405746EC
:1007B000D1F804C09C435FEACC2C00D51C433C60BC
:1007C000DBF800405F46D1F804C09C435FEA8C2C04
:1007D00000D51C433C60DEF800407746D1F804C0E9
:1007E0009C435FEA8C3C00D51C433C60084F083FAB
:1007F0003C68D1F804C09C435FEACC3C00D51C4364
:100800003C60521C102AFFF42FAFBDE8F88F0000A7
:10081000083C0140443802400030014000000240E2
:100820000004024000080240000C02400010024098
:100830000014024000180240001C0240426921EAF4
:1008400002030A4043EA0241816170470AB18161B3
:1008500070470904FBE7000001488068704700000A
:100860000C00002070B5040025D094F83D00002550
:1008700020B984F83C50204600F0F4FA242084F893
:100880003D002068016821F00101016020680168D5
:1008900041F4004101602068016821F400410160D9
:1008A00000F03EFC4D4A6168914201D84C4900E09D
:1008B0004C49884201D2012070BD4B492368B0FBEE
:1008C000F1F15E6826F03F060E435E606368934276
:1008D00006D94FF4967359434FF47A73B1FBF3F191
:1008E0002368491C1E6A26F03F063143196261687D
:1008F000914210D84900401EB0FBF1F2521CC2F3E5
:100900000B02042A01D2042022E0B0FBF1F0401CCB
:10091000C0F30B001CE0A268F2B301EBC10303EBD0
:100920000116431EB3FBF6F35B1C43F480431B0527
:1009300049D092B301EBC10202EB0111401EB0FBA2
:10094000F1F0401CC0F30B0040F4804040F4004044
:100950002168CA694CF6FF739A431043C861D4E911
:10096000071001432068026822F0C00211430160B1
:10097000D4E9030101432068826848F2FF339A43B7
:1009800011438160D4E9050108432168CA6822F057
:10099000FF021043C86001E00EE016E02068016825
:1009A00041F0010101602564202084F83D002563A9
:1009B00084F83E50002070BD01EB4106431EB3FB9E
:1009C000F6F35B1CB3E70120C2E701EB4101401ED7
:1009D000B0FBF1F0401CC0F30B00B7E7A0860100AC
:1009E00080841E0000093D0040420F002DE9FF4FAA
:1009F00081B089460446FFF72FFF054694F83D0075
:100A00004FF0000820287DD11923012250492046AB
:100A1000009500F061FF002874D194F83C00012893
:100A200070D0012084F83C0020680168C90703D118
:100A3000016841F0010101602068016821F4006152
:100A40000160242084F83D00002626644148E062CD
:100A50004FF0011B20272068016841F4807101607C
:100A60000095002259462046049B00F035FF50B106
:100A700020680068C00502D54FF400702064032090
:100A800005B0BDE8F08F216809F0FE000861FFF7AE
:100A9000E3FE2168054648694969C0F34000C1F397
:100AA00080214FF0A00A0FE0FFF7D6FE411B04980B
:100AB000814200D808B984F83DA021684869496995
:100AC000C0F34000C1F3802194F83D20A02A02D059
:100AD00008B90029E8D084F83D7020684169C9430D
:100AE000890716D4016841F40071016020684169EA
:100AF00080691923012216492046009500F0ECFE7A
:100B0000B8B900E021E084F83D7084F83C60002032
:100B1000B6E7016841F40071016021686FF48060FC
:100B20004861192301220A492046009500F0D4FEAD
:100B300008B10120A4E7039808F1010880458AD391
:100B400084F83D7084F83C60F3E7022098E70000E9
:100B5000020010000000FFFF2DE9F84F1F469046ED
:100B60008A460446DDF82890FFF776FE054694F89D
:100B70003D00202875D1192301226C49204600959B
:100B800000F0AAFE0028F5D194F83C00012868D0B6
:100B9000012084F83C0020680168C90703D101687E
:100BA00041F0010101602068016821F400610160E9
:100BB000222084F83D00102084F83E0000262664A0
:100BC000C4F824806785608D20855948E0622B46F3
:100BD0004A465146204600F095FD002878D1208DE8
:100BE000544F68B1012814D002282068016816D03B
:100BF00041F480610160206841698069009087E06C
:100C00002068416981690091016841F400710160C7
:100C10007EE02068016821F480610160F0E721F442
:100C2000806101602068016841F40061E2E7032807
:100C300048D801280AD0022814D04B460022394651
:100C40002046009500F048FED8BB27E02A464946DA
:100C5000204600F0C0FEA0BB20680069616A0870F1
:100C60004DE061E04B46002239462046009500F0F9
:100C700033FE30BB2068016841F4007101602068D8
:100C80000069616A0870606A401C6062218D491EBB
:100C90002185618D491E618521682EE020680168EB
:100CA00021F48061016020680069616A0870606AEF
:100CB000401C6062208D401E2085608D401E608536
:100CC000D0E705E02A464946204600F084FE10B1F0
:100CD0000120BDE8F88F20680069616A0870606AC9
:100CE000401C6062218D491E2185618D491E6185F0
:100CF00021684A69D24352070AD409690170606ABF
:100D0000401C6062208D401E2085608D401E6085E5
:100D1000208D00288BD1202084F83D0084F83E608F
:100D200084F83C600020D4E70220D2E702001000E3
:100D30000000FFFF040001002DE9F84F1F46904618
:100D40008A460446DDF82890FFF786FD054694F8AC
:100D50003D0020287FD119230122404920460095DB
:100D600000F0BAFD002876D194F83C00012872D03A
:100D7000012084F83C0020680168C90703D101689C
:100D800041F0010101602068016821F40061016007
:100D9000212084F83D00102084F83E0000262664BF
:100DA000C4F824806785608D20852D48E0622B463D
:100DB0004A465146204600F01BFD90B92068416923
:100DC0008069009036E02A464946204600F036FE0B
:100DD00050B1206C042804D12068016841F40071EE
:100DE00001600120BDE8F88F606A21680078086121
:100DF000606A401C6062618D491E6185218D491EBB
:100E000089B2218522685369DB435B070BD451B15A
:100E100000781061606A401C6062608D401E6085D1
:100E2000208D401E20852A464946204600F02EFD92
:100E30000028CED1208D0028C5D154F83D0B016883
:100E400041F400710160202004F81E09E6776677FE
:100E50000020C7E7FFE70220C4E7000002001000FF
:100E60000000FFFF10B586B0044614216846FFF766
:100E7000FDFA14492068884221D11348016841F0E5
:100E8000020101600068694600F0020005904FF41D
:100E900040600090122001900120029003200390F6
:100EA000042004900948FFF7D1FB0748103001687F
:100EB00041F480010160006800F48000059006B0F4
:100EC00010BD0000005800403038024000040240CD
:100ED0000248816802781144816070470C0000204C
:100EE0000B4810B5016841F400710160016841F4DC
:100EF00080610160016841F480710160032000F0AD
:100F000063F8002000F006F800F024F8002010BD7F
:100F1000003C024070B50D4D04464FF47A712878BC
:100F2000B1FBF0F00A490968B1FBF0F000F0FEFAFD
:100F300048B9102C07D200222146501E00F024F898
:100F400000206C6070BD012070BD00000C0000200E
:100F5000180000200B4882B0016841F48041016014
:100F6000006800F4804000900648001F016841F0CE
:100F700080510160006800F080500090072002B0AE
:100F800000F022B844380240F0B40E4B1B680C4607
:100F9000C3F30223C3F10705042D00D90425191D4D
:100FA000072901D2002300E0DB1E012606FA05F125
:100FB000491E214099409E40761E16403143F0BCA8
:100FC00000F0B5BE0CED00E0064900F0070208682D
:100FD0004FF6FF03184040EA0220034A104308601E
:100FE000704700000CED00E00000FA052DE9F04725
:100FF0000E46050065D0DFF81481D8F80000F7B27E
:1010000000F00700B04207D288F80070D8F800005E
:1010100000F00700B04254D128683D4C810712D53A
:10102000400703D5206840F4E0502060287800078E
:1010300003D5206840F4604020602068A96820F053
:10104000F000084320602878C0072DD03049686838
:101050000839012812D0022813D0032811D00968BA
:10106000890700292DDA216821F00301014321605D
:10107000FFF7F2FB814641F2883A0EE009688903E6
:10108000EFE709688901ECE7FFF7E6FBA0EB090150
:10109000514502D90320BDE8F0872068696800F057
:1010A0000C00B0EB810FEFD1D8F80010404601F0F2
:1010B0000701B14207D90770006800F00700B0428D
:1010C00001D00120E7E72878400705D52068E968C6
:1010D00020F4E050084320602878000706D52068F7
:1010E000296920F4604040EAC100206000F038F82F
:1010F0002168084AC1F30311515CC84006490860E1
:1011000006480068FFF706FF0020C4E7003C0240E5
:1011100008380240F22400081800002010000020C7
:101120000448054900680968044AC1F38221515CFA
:10113000C840704718000020083802400225000807
:101140000448054900680968044AC1F34231515C0A
:10115000C8407047180000200838024002250008E7
:10116000154810B5006810F00C02144813D0411057
:10117000042A0FD0082A0ED10F4C241F226823689E
:1011800002F03F025B0207D52068C0F38810A0FB85
:10119000010106E0084610BD2168C1F38811A1FBDA
:1011A00000010023FFF764F82168C1F30141491CE5
:1011B0004900B0FBF1F010BD083802400024F400F3
:1011C0002DE9F84F04006ED02078DFF84C93C0076B
:1011D000A9F104054AD009F104000168C1F38101B5
:1011E000012908D00068C0F3810002280AD1D9F88B
:1011F0000000400206D52868800337D560680028C3
:10120000E1D033E06068B0F5803F10D0B0F5A02F9A
:10121000286810D020F480302860286820F48020CE
:1012200028606068A8B1FFF717FB06460DE0286844
:1012300040F48030F4E740F480202860F7E700BFF6
:10124000FFF70AFB801B642873D828688003F7D552
:101250000CE0FFF701FB064605E000BFFFF7FCFAD4
:10126000801B6428F0D828688003F7D42078DFF842
:10127000AC8280074FF0000A3ED5A748001D0168E8
:1012800011F00C0F08D00068C0F3810002280BD1C8
:10129000D9F80000400207D42868800716D5E06816
:1012A000012800D112E033E1E068B8B10120C8F8AC
:1012B0000000FFF7D1FA064605E000BFFFF7CCFAC1
:1012C000801B0228C0D828688007F7D528682169C4
:1012D00020F0F80040EAC10028600DE0C8F800A046
:1012E000FFF7BAFA064604E0FFF7B6FA801B0228B9
:1012F0001FD828688007F7D42078000722D5864FAA
:1013000087486169703771B101210160FFF7A4FA64
:10131000064604E0FFF7A0FA801B022809D83868C7
:101320008007F7D50EE0C0F800A0FFF795FA064653
:1013300005E082E0FFF790FA801B02287DD838682C
:101340008007F7D42078400768D5DFF8CCB10027B4
:101350000BF13C0BDBF80000C0000BD4DBF80010F5
:1013600041F08051CBF80010DBF80000012700F0BD
:10137000805000906B4E3068C00510D4306840F447
:1013800080703060FFF768FA009005E0FFF764FABC
:101390000099401A022850D83068C005F6D55E4E34
:1013A000A0686C3601280FD00528306810D020F0D6
:1013B00001003060306820F004003060A068B8B1EF
:1013C000FFF74AFA00900FE0306840F00100F4E7C0
:1013D00040F004003060F7E7FFF73EFA0099411A49
:1013E00041F28830814266D830688007F4D50EE03B
:1013F000FFF732FA009007E0FFF72EFA0099411A42
:1014000041F28830814256D830688007F4D42FB139
:10141000DBF8001021F08051CBF80010A069C8B3B0
:101420003D49091D0968C1F3810102294AD00228FA
:10143000504607D0C8F8600000E03CE0FFF70CFA27
:1014400004463BE04746C8F86000FFF705FA064649
:1014500005E000BFFFF700FA801B02282BD82868A0
:101460008001F7D4D4E907010843A16A2E4A49084C
:1014700002EB0141626A41EA8211084394F82C10A0
:1014800040EA0161C9F8001001203866FFF7E4F96D
:10149000044606E03EE000BFFFF7DEF9001B02282D
:1014A00009D828688001F7D534E000BFFFF7D4F9E8
:1014B000001B022802D90320BDE8F88F28688001AC
:1014C000F4D427E00128F7D0D9F80000E26900F44D
:1014D000800191421CD1226A00F03F01914217D154
:1014E00047F6C071626A0140B1EB821F10D1A26A57
:1014F0004FF0FF3300F4403103EB5202B1EB024FE7
:1015000006D194F82C1000F07060B0EB016F01D0A0
:101510000120D1E70020CFE7043802400000474215
:10152000800E4742007000400000FFFF10B5401ED3
:10153000B0F1807F01D3012010BD4FF0E024606145
:101540000F21601700F0F3FB0020A061072020614D
:10155000002010BD70B5040004D094F83D000025B3
:1015600010B106E0012070BD84F83C50204600F028
:1015700023F8242084F83D002068C16821F400513C
:10158000C160204600F010FB2068016921F4904101
:1015900001612068416921F02A0141612068C16828
:1015A00041F40051C1602564202084F83D0084F896
:1015B0003E00002070BD000010B586B00446142126
:1015C0006846FEF753FF13492068884220D112482D
:1015D0000021026842F020020260006800F0200052
:1015E00005900D481438026842F004020260006859
:1015F00000F004000590C02000900220CDE9010118
:10160000032003900820049069460448FFF71EF861
:1016100006B010BD001401404438024000080240EA
:101620002DE9F843044690F83D001F4616460D4646
:1016300020284CD1C5B1BEB194F83C00012846D059
:10164000012084F83C004FF00008C4F840802120BD
:1016500084F83D00FFF700F9A6848146E684A0687F
:10166000B0F5805F03D004E00120BDE8F883206975
:1016700028B12E465FF0000584F83C800EE000267D
:10168000FAE78021204600F015FBA0B9AEB116F8AC
:10169000010B21684860E08C401EE084E08C4B46E2
:1016A0004FF0000200970028EBD14FF04001204698
:1016B00000F000FB30B10320D7E735F8020BC0F390
:1016C0000800E6E7202084F83D000020CDE7022056
:1016D000CBE7FEE701684A69D24352050FD46FF4A5
:1016E00080624A61002140F8301F202242738173DA
:1016F000026942F004020261017301207047002078
:10170000704700002DE9F84F0446C06A1E46934614
:101710000D4621680A6842F480620A60082807D0F2
:10172000012805D010F5803F02D0206B112804D18C
:101730002068016841F4807101604FF001195B4637
:10174000002249462046009600F0C6F84FF4007883
:1017500040B120680068C00501D5C4F8408003206E
:10176000BDE8F88F2069DFF884A0B0F5804F0FD076
:101770000620216800EAD51747F0F00008613346DB
:101780005A460AF10601204600F0DAF858BB03E099
:10179000E8B240F001001CE02168E8B2086133467D
:1017A0005A465146204600F0CBF8E0B9206841691E
:1017B00081690091016841F4807101605B460022FB
:1017C00049462046009600F087F80028C1D147F02E
:1017D000F1002168086133465A465146204600F020
:1017E000AFF80028BCD00120BAE7000002000100D9
:1017F000F8B50446C06A1E460D461746082807D0AD
:10180000012805D010F5803F02D0206B122804D1AA
:101810002068016841F480710160134600224FF096
:1018200001112046009600F057F840B1206800688A
:10183000C00502D54FF4007020640320F8BD206974
:10184000B0F5804F0ED00620216800EAD51040F098
:10185000F000086133463A460B49204600F070F824
:1018600078B902E005F0FE0000E0E8B22168086106
:10187000054933463A46891F204600F061F80028A2
:10188000DCD00120F8BD00000800010070B516464C
:101890000D4604460DE02046FFF71CFF08B101206D
:1018A00070BD681C05D0FEF7D7FF801BA84207D883
:1018B00035B120684069C0434007ECD4002070BDBA
:1018C000002044F8300F20216173A073216941F09A
:1018D000200121612073E2E72DE9F0471E46904682
:1018E0000D460446C1F30747DDF8209008E0701C60
:1018F00006D0FEF7B1FFA0EB0900B0420FD876B1D9
:101900002068012F18D0806925EA00000004000C2F
:1019100014D000214145EAD00020BDE8F087002026
:1019200044F8300F20216173A073216941F0200138
:10193000216120730120F0E74069E5E70121E9E733
:101940002DE9F0479A4691460E46044600254FF091
:101950002008C1F3074725E020684069C0434005DF
:1019600014D42068016841F40071016021686FF4AB
:1019700080604861256384F83D8084F83E50206C87
:1019800040F00400206484F83C501FE0B9F1FF3FB0
:1019900008D0FEF761FFA0EB0A0149450CD8B9F168
:1019A000000F09D02068012F13D0806926EA0000BB
:1019B0000004000C0BD0CFE744F8305F84F80D80B2
:1019C000A573206940F02000206125730120BDE847
:1019D000F0874069EAE72DE9F041002590460E4680
:1019E0000446202717E04069C043C0060CD454F8D1
:1019F000301B6FF01000486144F810596777A577E5
:101A0000206A2062257717E0FEF726FFA0EB08008A
:101A1000B04208D83EB120684169C9434906E2D4C2
:101A20000020BDE8F08144F8305F6773A57320693A
:101A300040F02000206125730120F2E770B51646C2
:101A40000D4604460DE02046FFF744FE08B1012094
:101A500070BD681C05D0FEF7FFFE801BA84207D8AA
:101A600035B120684069C0430006ECD4002070BD49
:101A7000002044F8300F20216173A073216941F0E8
:101A8000200121612073E2E770B586B01421684619
:101A9000FEF7ECFC1A480024016841F002010160E5
:101AA000016801F002010591016841F0080101603F
:101AB000016801F008010591016841F0040101602D
:101AC000016801F004010591016841F00101016024
:101AD00000680C4E00F001004FF4604505900022B4
:101AE00029463046FEF7B2FE01200095CDE90104FB
:101AF000694630460394FEF7A9FD06B070BD0000AC
:101B000030380240000C0240FEE7FEE770477047A5
:101B1000FFF7DEB910B592B030216846FEF7A6FC9B
:101B200014210CA8FEF7A2FC19480024016841F01A
:101B300080510160006800F08050119015480168E4
:101B400041F4804101600068069400F480401190E7
:101B50000220009001200390102004906846FFF7B7
:101B60002FFB08B172B6FEE70F20CDE90C044FF44D
:101B7000C050CDE90E404FF48050109000210CA8C9
:101B8000FFF734FA002801D072B6FEE712B010BD9C
:101B900040380240007000400248016841F4700182
:101BA0000160704788ED00E070B504460068016987
:101BB000E26821F44051114301612169A068E269A2
:101BC00008436169114308432168CA6849F20C63FC
:101BD0009A430243CA6020684169A26921F44071B6
:101BE0001143416131492068884202D0304988421E
:101BF00002D1FFF7A5FA01E0FFF792FAE2690023AC
:101C0000192164253226B2F5004F626828D0A0FB66
:101C10000101930F9200FEF72BFB0146B0FBF5F09C
:101C20006FF01802504301EB800006EB0010B0FB90
:101C3000F5F000F0F002B1FBF5F002EB0012B1FBA1
:101C4000F5F06FF01803584301EB800006EB00102D
:101C5000B0FBF5F000F00F0021681044886070BD03
:101C6000A0FB010192185B41FEF702FB0146B0FBAD
:101C7000F5F00201B1FBF5F06FF01803584301EBEA
:101C8000800006EBC000B0FBF5F000F0F80002EBBE
:101C90004002B1FBF5F0584301EB800006EBC000B9
:101CA000B0FBF5F000F00700D6E70000001001409F
:101CB000001401402DE9F041984617460E460446AF
:101CC000069D27E0681C25D02DB1FEF7C5FDA0EBD1
:101CD0000800A8421ED920680C3050E8001F21F4EB
:101CE000D07140E80012002AF5D12068143050E885
:101CF000001F21F0010140E80012002AF5D1202048
:101D000084F83D0084F83E00002084F83C00032065
:101D1000BDE8F0812068006836EA000004D00020A9
:101D2000B842CFD00020F3E70120F9E7FEE709072A
:101D3000090E002804DB00F1E02080F80014704751
:101D400000F00F0000F1E02080F8141D7047000043
:101D50002DE9F04F2DED088B81B0FFF7C1F8FFF7AB
:101D6000D9FEFFF791FE654863490024016064498C
:101D7000C0E901144FF48047C0E90347446184611E
:101D8000C4610462FEF76EFD08B172B6FEE75B48FF
:101D90005C49543001604FF4E131C0E901140C2179
:101DA000C460C0E904418461C461FFF7D3FB08B19A
:101DB00072B6FEE76423052280215048FEF716FE26
:101DC00028B101B00020BDEC088BBDE8F08F4E4E6D
:101DD00000254FF47A7439463046FEF72FFD204631
:101DE000FEF722FC6D1C032DF5DB484FB246BE1EEC
:101DF0004FF0640935469FED468B9FED479B4FF0B2
:101E0000F5089FED47AB9FED48BB4FF4005B012306
:101E10007A1C802139480094FEF78EFF6420FEF77B
:101E200003FC3A4A0123921E802134480094FEF7B5
:101E300093FE7078317800EB012080B2A88000F02A
:101E400058F953EC182B00F067F953EC192B00F0FC
:101E50007BF800F021F9E88087F8018001237A1CE3
:101E6000802126480094FEF767FF6420FEF7DCFB24
:101E7000264A0223921E80212048CDF80090FEF7CA
:101E80006BFE7078317800EB012080B2A88000F002
:101E900030F953EC1A2B00F03FF953EC1B2B00F0F8
:101EA00053F800F0F9F8288159465046FEF7C6FC71
:101EB0006420FEF7B9FB1148EA881DA19830FEF7AF
:101EC0004FFA0E4982B298312346A1F14400FFF740
:101ED000A7FB0A482A8919A1CA30FEF741FA074927
:101EE00082B2CA312346A1F17600FFF799FB4FF485
:101EF000FA70FEF799FB8AE7005800401C000020AA
:101F0000A086010000140140000C024002000020E5
:101F100094F6065F984C653FCDCCCCCCCC6C47C0DA
:101F2000C58F31772D215F3F00000000000018C0F1
:101F300054656D70203D2025640D0A005248203DF7
:101F40002025640D0A00000010B591EA030F48BF78
:101F500083F0004300F1E681841A71EB030C05D293
:101F6000121943EB0C03001B61EB0C01DFF824E1B9
:101F70004FEA1154A4EB135C1EEA430F18BF9EEA0C
:101F8000445F73D023EA0E03DCF1200E21EA0451F2
:101F900043F4801332D322FA0CFE10EB0E0023FA26
:101FA0000CFE41EB0E01CCF1200E03FA0EFE10EBFD
:101FB0000E0051F10001B1F5801FCCF1200E32D29C
:101FC00001EB045112FA0EF2BDE8104058BF704701
:101FD000401C38BF5FEA420218BF7047002814BF98
:101FE00020F0010041F100014FEA410313F5001F09
:101FF00038BF7047A1F1C04100F086B9012A43EB18
:102000000302ACF1200CDCF11F0E32BF4FF0000ECA
:1020100023FA0CF310EB030041EB0451B4EB115F16
:10202000D0D0A1EB045101F5801149085FEA3000DE
:1020300001EB04510ED350F1000038BF12FA0EFE2E
:1020400008D1BDE81040C9E7401C38BF5FEA420232
:10205000CAD1C3E7BDE810404FEA410313F5001FA2
:1020600038BF7047A1F1C04100F04EB99EEA445F0D
:1020700008D011EA5E0FBDE8104004BF01F0004136
:1020800000207047BDE8104070B500F0EFF800BFC9
:1020900064FBBE3E0000E0FF4FEA1153A3F58063EE
:1020A000D3F11E03A8BFD3F1200C08DB4FF0004290
:1020B00042EAC12252EA505232FA03F07047094212
:1020C0000BD4102BC4BF0020704703F5787CBCF103
:1020D000FF3F05D04FF0FF3070474FF000007047D2
:1020E00070B500F0C3F800BF49922480002070470B
:1020F000F0E7B0FA80F310FA03F10AD0C3F11D0340
:1021000003F580634FEA41504FEA035202EBD121BD
:1021100070474FF000007047DFF848C170B51CEA07
:10212000111E1EBF1CEA13159EEA0C0F95EA0C0F38
:1021300000F06F8081EA030423EA4C134EEAD47E58
:1021400021EA4C1141F4801143F48013AE44A1FB09
:10215000024CA0FB0365AEF17F7E361955EB0C05F2
:10216000A1FB034C4CF10003A0FB021C16EB0C0678
:10217000654153F10003094218BF46F0010613F40C
:10218000007F0BD14FEA03314FEA0530340341EAB7
:10219000155140EA16506FF003020AE04FEAC321DE
:1021A0004FEAC520F40241EA555140EA56506FF01B
:1021B000020202EB2E4201EB025585EACE710AD0F3
:1021C0005FEA440C18BF24F0004450F1000041F1D4
:1021D000000120EAD47040F2FE7C624500D270BD5E
:1021E000A84214BF4FF080444FF04044002E08BF77
:1021F0000024BEF1806FA8BFA1F1C041BDE87040CE
:1022000080F282804FF0000001F1C04101F00041F6
:1022100070479EEA0C0F0CEA131518BF95EA0C0FD5
:1022200006D04FF0000081EA030E0EF0004170BDB1
:1022300000F01CF88900013E00F007B800F009B872
:102240004FEA430C5FEA5C5C08D081EA030100F0CE
:102250005BB84FEA410C5FEA5C5CF6D14FF00000DE
:10226000014970470000FF070000F87F0EF1020EE1
:102270002EF0030E5EF8046B364205D4012A43EBC0
:10228000030515F5001F12D8012841EB010C1CF5C0
:10229000001F0CD80ED14FEAD17C15F5001F0CEBB6
:1022A0004C0C0CF1020C08BF4CEBD37C04E04FF05B
:1022B000080C01E04FEAD37C0CEB4C0526FA05F63E
:1022C00006F00706B6F1040C06D20EEB860CBDE84C
:1022D00070404CF0010C6047DFE80CF0090B020283
:1022E0004FF000414FF00000A1F5002170BD1946EC
:1022F0001046012851EB010418BFD4F5001484BF27
:10230000002001F0004170BD0808A0F500114FEA5F
:102310003101704710B591EA030F48BF83F00043C5
:102320003FF51AAE841A71EB030C07D212198CF028
:10233000004C43EB0C03001B61EB0C01DFF8A4E144
:102340004FEA1154A4EB135C1EEA430F18BF9EEA38
:10235000445F00F0B08023EA6E03524221EA045148
:10236000C3EB6E0338BF5B1EDCF1200E25D322FACF
:102370000CFE10EB0E0043FA0CFE41EB0E01CCF10B
:10238000200E03FA0EFE10EB0E0051F10001CCF10D
:10239000200E29D412FA0EF201EB0451BDE81040D0
:1023A00058BF7047401C1CBFB2F1004F7047002857
:1023B0000CBF491C20F00100704712EB020E43EBEA
:1023C000030218BF4FF0010E4EEA4202ACF1200C9E
:1023D000DCF11E0E54D943FA0CFE10EB0E0051F145
:1023E000FF31CCF11E0ED5D50EF1010E12FA0EFE04
:1023F000404141EB010101EB445C5FEA5C5C10D9B8
:1024000010EBDE7001EB045138BFBEF1004FBDE8A8
:10241000104018BF704700280CBF491C20F0010075
:10242000704730D24FEAD42C11F5001124F4006427
:102430001BD0B1FA81F20B3AA41AA41ED2F12003E8
:10244000914030FA03F31943904001EBCC71002C1A
:1024500001EB0451BDE81040A8BF704701F1C04135
:102460004FF0000001F000417047B0FA80F310FA1D
:1024700003F100D110BDE41A173C4805C90AE4E78E
:1024800001EB045110BD491001EB0451BDE81040AF
:102490004FEA300002E04FF0000170474A0008BFE9
:1024A0000042F8D0B2F5001F28BF704701F000418C
:1024B0004FF0000070479EEA445F07D011EA5E0FBC
:1024C000BDE8104004BF002100207047BDE8104067
:1024D00070B5FFF7CBFE00BF40DFF63E83F0004152
:1024E000104670470000E0FF4FF04070E1EE100A28
:1024F000704700000000000000000102030406070E
:102500000809000000000102030400002C25000857
:10251000000000201C000000C4010008482500083D
:102520001C0000205C070000E00100080000000023
:10253000000000000000000001000000100000008A
:08254000000000000024F4007B
:040000050800018965
:00000001FF
