:020000040800F2
:1000000018050020A10100081B1B0008E3160008CA
:10001000191B0008350600083D1D000800000000FF
:100020000000000000000000000000001F1B00088E
:1000300037060008000000001D1B0008211B0008F7
:10004000BB010008BB010008BB010008BB010008A0
:10005000BB010008BB010008BB010008BB01000890
:10006000BB010008BB010008BB010008BB01000880
:10007000BB010008BB010008BB010008BB01000870
:10008000BB010008BB010008BB010008BB01000860
:10009000BB010008BB010008BB010008BB01000850
:1000A000BB010008BB010008BB010008BB01000840
:1000B000BB010008BB010008BB010008BB01000830
:1000C000BB010008BB010008BB010008BB01000820
:1000D000BB010008BB010008BB010008BB01000810
:1000E000BB010008BB010008BB010008BB01000800
:1000F000BB010008BB010008BB010008BB010008F0
:10010000BB010008BB010008BB010008BB010008DF
:10011000BB010008BB010008BB010008BB010008CF
:10012000BB010008BB010008BB010008BB010008BF
:10013000BB010008BB010008BB010008BB010008AF
:10014000BB010008BB010008BB010008BB0100089F
:10015000BB010008BB010008BB010008BB0100088F
:10016000BB010008BB010008BB010008BB0100087F
:10017000BB010008BB010008BB0100080000000033
:10018000BB010008BB010008DFF810D000F040FA06
:1001900000480047F5200008AFF300801805002054
:1001A0000648804706480047FEE7FEE7FEE7FEE711
:1001B000FEE7FEE7FEE7FEE7FEE7FEE7A91B000815
:1001C000890100082DE9F05F0546002092469B4614
:1001D00088460646814640241BE02846414647465D
:1001E000224600F096F953465A46C01A914110D360
:1001F00011461846224600F07DF92D1A67EB0108DA
:100200004F4622460120002100F074F917EB000947
:100210004E41201EA4F10104DFDC484631462A4647
:100220004346BDE8F09FD2B201E000F8012B491E21
:10023000FBD270470022F6E710B513460A46044683
:100240001946FFF7F0FF204610BD2DE9FE4F80460E
:1002500081EA0300C00F0C46009021F0004123F01A
:100260000045B8EB0200A94105D240462146904620
:100270001C460B46024623F00040104347D0270D92
:10028000C7F30A00C3F30A510290401A01904028B4
:100290006BDAC3F3130040F4801B0098924620B140
:1002A0000023D2EB030A63EB0B0B01985946C0F114
:1002B0004002504600F01EF906460D46504659468B
:1002C000019A00F036F910EB08006141002487EA3A
:1002D000115284EAE7731A4340D0009A62B3019A3C
:1002E000012A4FEA075215DC001B61EB02014FF0B7
:1002F000004202EA0752CDE90042001C41F580119C
:1003000032462B4600F036F903B0BDE8F08F404688
:100310002146F9E7001B61EB0201001C41F5801347
:1003200000185B412018A2F5001747EB030140EAD3
:10033000D570B6196D4111E06D084FEA360645EAF1
:10034000C0754FEA0752001B61EB0201001C41F52A
:10035000801149084FEA30000019514132462B46BE
:1003600003B0BDE8F04F00F0F6B80098012240005D
:100370000023D0EB020263EBE073009821464FEAC2
:10038000E074B8EB000061EB0401E9E783F000439F
:100390005BE781F0004158E72DE9FE4F81EA030455
:1003A00004F0004421F0004100944FF0000B23F0D2
:1003B000004350EA01045ED052EA03045BD0C3F369
:1003C0000A54C1F30A552C44A4F2F3340194A0FB5F
:1003D0000254C1F3130141F48011C3F3130343F436
:1003E000801301FB024400FB034E840A970A44EA8F
:1003F000815447EA8357A4FB076802958D0A05FBE1
:1004000007854FEA932C04FB0C542705029D4FEA05
:10041000065847EA1637B5EB08056EEB070C870E52
:10042000920E47EA811742EA8312A7FB0201B6EB5C
:100430000B0164EB00042B0D43EA0C335E1844EB14
:100440001C50DA465146E7FB0201C5F313044FEA9C
:100450000B3343EA14534FEA0432019C43EA060388
:10046000A4F10C040294009CCDE900B400F082F8E1
:1004700003B0BDE8F08F00200146F9E70EB540F269
:10048000334102910021CDE900110A460B4600F0EC
:1004900071F803B000BDC1F30A5210B5C1F31301E6
:1004A00040F2FF3341F480119A4201DA002010BD7E
:1004B00040F233439A42A2F2334203DC524200F04C
:1004C00028F810BD904010BD30B50B460146002005
:1004D0002022012409E021FA02F59D4205D303FA06
:1004E00002F5491B04FA02F52844151EA2F1010287
:1004F000F1DC30BD202A04DB203A00FA02F10020B2
:1005000070479140C2F1200320FA03F31943904051
:100510007047202A04DB203A21FA02F000217047BC
:1005200021FA02F3D040C2F120029140084319465B
:100530007047202A06DBCB17203A41FA02F043EA43
:10054000E07306E041FA02F3D040C2F1200291408C
:1005500008431946704710B5141E73F1000408DAF9
:10056000401C41F1000192185B411A4301D120F077
:10057000010010BD2DE9F04D92469B4611B1B1FA34
:1005800081F202E0B0FA80F220329046FFF7B2FF2B
:1005900004460F4640EA0A0041EA0B0153465A4618
:1005A000084313D0114653EA010019D0C8F14002A4
:1005B0005046FFF7AEFF05460E46504659464246A6
:1005C000FFF798FF084305D0012004E02046394694
:1005D000BDE8F08D0020054346EAE0762C43374322
:1005E0000A986305E40AA0EB08000022FD0A44EA29
:1005F00047540A3002D500200146E9E701051019E9
:100600006941DDE9084500196941BDE8F04DA2E7FF
:10061000064C074D06E0E06840F0010394E807004F
:1006200098471034AC42F6D3FFF7B2FD0823000818
:1006300028230008FEE7704770B5044600F014F95F
:100640000546601C02D004480078044400F00CF910
:10065000401BA042FAD370BD0C0000202DE9F84FDA
:10066000DFF8BCA10022012503264FF00F090AF193
:10067000040BAAF1040E00BF0B6805FA02F4234034
:10068000A34270D10F7907F00307012F01D0022F89
:1006900016D187684FEA420806FA08FC27EA0C07D9
:1006A000D1F80CC00CFA08FC4CEA070CC0F808C0E2
:1006B0004768A7430C79C4F3001494403C4344605A
:1006C0000C79E443A4070AD0C4684FEA420C06FA46
:1006D0000CF7BC438F6807FA0CF72743C7600C7907
:1006E00004F00304022C12D1D40800EB840CDCF8D3
:1006F00020405707FF0E09FA07F824EA0804D1F84A
:10070000108008FA07F848EA0408CCF8208004684A
:100710004FEA420C06FA0CF7BC430F7907F00307C7
:1007200007FA0CF7274307604C6814F4403F70D079
:100730003C4C276847F480472760246822F0030771
:1007400004F480440094384C07EB040CDCF80848AF
:1007500097074FEA177809FA08F7BC43334FB842B6
:1007600002D1002724E054E0314FB84201D10127E3
:100770001EE0304FB84201D1022719E02E4FB84297
:1007800001D1032714E02D4FB84201D104270FE017
:100790002B4FB84201D105270AE02A4FB84201D1B8
:1007A000062705E0284FB84201D1072700E00827B7
:1007B00007FA08F72743CCF80878DAF800405746DC
:1007C000D1F804C09C435FEACC2C00D51C433C60AC
:1007D000DBF800405F46D1F804C09C435FEA8C2CF4
:1007E00000D51C433C60DEF800407746D1F804C0D9
:1007F0009C435FEA8C3C00D51C433C60084F083F9B
:100800003C68D1F804C09C435FEACC3C00D51C4353
:100810003C60521C102AFFF42FAFBDE8F88F000097
:10082000083C0140443802400030014000000240D2
:100830000004024000080240000C02400010024088
:100840000014024000180240001C0240426921EAE4
:1008500002030A4043EA0241816170470AB18161A3
:1008600070470904FBE700000148806870470000FA
:100870000C00002070B5040025D094F83D00002540
:1008800020B984F83C50204600F0F4FA242084F883
:100890003D002068016821F00101016020680168C5
:1008A00041F4004101602068016821F400410160C9
:1008B00000F03EFC4D4A6168914201D84C4900E08D
:1008C0004C49884201D2012070BD4B492368B0FBDE
:1008D000F1F15E6826F03F060E435E606368934266
:1008E00006D94FF4967359434FF47A73B1FBF3F181
:1008F0002368491C1E6A26F03F063143196261686D
:10090000914210D84900401EB0FBF1F2521CC2F3D4
:100910000B02042A01D2042022E0B0FBF1F0401CBB
:10092000C0F30B001CE0A268F2B301EBC10303EBC0
:100930000116431EB3FBF6F35B1C43F480431B0517
:1009400049D092B301EBC10202EB0111401EB0FB92
:10095000F1F0401CC0F30B0040F4804040F4004034
:100960002168CA694CF6FF739A431043C861D4E901
:10097000071001432068026822F0C00211430160A1
:10098000D4E9030101432068826848F2FF339A43A7
:1009900011438160D4E9050108432168CA6822F047
:1009A000FF021043C86001E00EE016E02068016815
:1009B00041F0010101602564202084F83D00256399
:1009C00084F83E50002070BD01EB4106431EB3FB8E
:1009D000F6F35B1CB3E70120C2E701EB4101401EC7
:1009E000B0FBF1F0401CC0F30B00B7E7A08601009C
:1009F00080841E0000093D0040420F002DE9FF4F9A
:100A000081B089460446FFF72FFF054694F83D0064
:100A10004FF0000820287DD119230122504920469B
:100A2000009500F061FF002874D194F83C00012883
:100A300070D0012084F83C0020680168C90703D108
:100A4000016841F0010101602068016821F4006142
:100A50000160242084F83D00002626644148E062BD
:100A60004FF0011B20272068016841F4807101606C
:100A70000095002259462046049B00F035FF50B1F6
:100A800020680068C00502D54FF400702064032080
:100A900005B0BDE8F08F216809F0FE000861FFF79E
:100AA000E3FE2168054648694969C0F34000C1F387
:100AB00080214FF0A00A0FE0FFF7D6FE411B0498FB
:100AC000814200D808B984F83DA021684869496985
:100AD000C0F34000C1F3802194F83D20A02A02D049
:100AE00008B90029E8D084F83D7020684169C943FD
:100AF000890716D4016841F40071016020684169DA
:100B000080691923012216492046009500F0ECFE69
:100B1000B8B900E021E084F83D7084F83C60002022
:100B2000B6E7016841F40071016021686FF48060EC
:100B30004861192301220A492046009500F0D4FE9D
:100B400008B10120A4E7039808F1010880458AD381
:100B500084F83D7084F83C60F3E7022098E70000D9
:100B6000020010000000FFFF2DE9F84F1F469046DD
:100B70008A460446DDF82890FFF776FE054694F88D
:100B80003D00202875D1192301226C49204600958B
:100B900000F0AAFE0028F5D194F83C00012868D0A6
:100BA000012084F83C0020680168C90703D101686E
:100BB00041F0010101602068016821F400610160D9
:100BC000222084F83D00102084F83E000026266490
:100BD000C4F824806785608D20855948E0622B46E3
:100BE0004A465146204600F095FD002878D1208DD8
:100BF000544F68B1012814D002282068016816D02B
:100C000041F480610160206841698069009087E05B
:100C10002068416981690091016841F400710160B7
:100C20007EE02068016821F480610160F0E721F432
:100C3000806101602068016841F40061E2E70328F7
:100C400048D801280AD0022814D04B460022394641
:100C50002046009500F048FED8BB27E02A464946CA
:100C6000204600F0C0FEA0BB20680069616A0870E1
:100C70004DE061E04B46002239462046009500F0E9
:100C800033FE30BB2068016841F4007101602068C8
:100C90000069616A0870606A401C6062218D491EAB
:100CA0002185618D491E618521682EE020680168DB
:100CB00021F48061016020680069616A0870606ADF
:100CC000401C6062208D401E2085608D401E608526
:100CD000D0E705E02A464946204600F084FE10B1E0
:100CE0000120BDE8F88F20680069616A0870606AB9
:100CF000401C6062218D491E2185618D491E6185E0
:100D000021684A69D24352070AD409690170606AAE
:100D1000401C6062208D401E2085608D401E6085D5
:100D2000208D00288BD1202084F83D0084F83E607F
:100D300084F83C600020D4E70220D2E702001000D3
:100D40000000FFFF040001002DE9F84F1F46904608
:100D50008A460446DDF82890FFF786FD054694F89C
:100D60003D0020287FD119230122404920460095CB
:100D700000F0BAFD002876D194F83C00012872D02A
:100D8000012084F83C0020680168C90703D101688C
:100D900041F0010101602068016821F400610160F7
:100DA000212084F83D00102084F83E0000262664AF
:100DB000C4F824806785608D20852D48E0622B462D
:100DC0004A465146204600F01BFD90B92068416913
:100DD0008069009036E02A464946204600F036FEFB
:100DE00050B1206C042804D12068016841F40071DE
:100DF00001600120BDE8F88F606A21680078086111
:100E0000606A401C6062618D491E6185218D491EAA
:100E100089B2218522685369DB435B070BD451B14A
:100E200000781061606A401C6062608D401E6085C1
:100E3000208D401E20852A464946204600F02EFD82
:100E40000028CED1208D0028C5D154F83D0B016873
:100E500041F400710160202004F81E09E6776677EE
:100E60000020C7E7FFE70220C4E7000002001000EF
:100E70000000FFFF10B586B0044614216846FFF756
:100E8000D9F914492068884221D11348016841F0FA
:100E9000020101600068694600F0020005904FF40D
:100EA00040600090122001900120029003200390E6
:100EB000042004900948FFF7D1FB0748103001686F
:100EC00041F480010160006800F48000059006B0E4
:100ED00010BD0000005800403038024000040240BD
:100EE0000248816802781144816070470C0000203C
:100EF0000B4810B5016841F400710160016841F4CC
:100F000080610160016841F480710160032000F09C
:100F100063F8002000F006F800F024F8002010BD6F
:100F2000003C024070B50D4D04464FF47A712878AC
:100F3000B1FBF0F00A490968B1FBF0F000F0FEFAED
:100F400048B9102C07D200222146501E00F024F888
:100F500000206C6070BD012070BD00000C000020FE
:100F6000180000200B4882B0016841F48041016004
:100F7000006800F4804000900648001F016841F0BE
:100F800080510160006800F080500090072002B09E
:100F900000F022B844380240F0B40E4B1B680C46F7
:100FA000C3F30223C3F10705042D00D90425191D3D
:100FB000072901D2002300E0DB1E012606FA05F115
:100FC000491E214099409E40761E16403143F0BC98
:100FD00000F0CABE0CED00E0064900F00702086808
:100FE0004FF6FF03184040EA0220034A104308600E
:100FF000704700000CED00E00000FA052DE9F04715
:101000000E46050065D0DFF81481D8F80000F7B26D
:1010100000F00700B04207D288F80070D8F800004E
:1010200000F00700B04254D128683D4C810712D52A
:10103000400703D5206840F4E0502060287800077E
:1010400003D5206840F4604020602068A96820F043
:10105000F000084320602878C0072DD03049686828
:101060000839012812D0022813D0032811D00968AA
:10107000890700292DDA216821F00301014321604D
:10108000FFF7F2FB814641F2883A0EE009688903D6
:10109000EFE709688901ECE7FFF7E6FBA0EB090140
:1010A000514502D90320BDE8F0872068696800F047
:1010B0000C00B0EB810FEFD1D8F80010404601F0E2
:1010C0000701B14207D90770006800F00700B0427D
:1010D00001D00120E7E72878400705D52068E968B6
:1010E00020F4E050084320602878000706D52068E7
:1010F000296920F4604040EAC100206000F038F81F
:101100002168084AC1F30311515CC84006490860D0
:1011100006480068FFF706FF0020C4E7003C0240D5
:1011200008380240F02200081800002010000020BB
:101130000448054900680968044AC1F38221515CEA
:10114000C8407047180000200838024000230008FB
:101150000448054900680968044AC1F34231515CFA
:10116000C8407047180000200838024000230008DB
:10117000154810B5006810F00C02144813D0411047
:10118000042A0FD0082A0ED10F4C241F226823688E
:1011900002F03F025B0207D52068C0F38810A0FB75
:1011A000010106E0084610BD2168C1F38811A1FBCA
:1011B00000010023FFF706F82168C1F30141491C33
:1011C0004900B0FBF1F010BD083802400024F400E3
:1011D0002DE9F84F04006ED02078DFF84C93C0075B
:1011E000A9F104054AD009F104000168C1F38101A5
:1011F000012908D00068C0F3810002280AD1D9F87B
:101200000000400206D52868800337D560680028B2
:10121000E1D033E06068B0F5803F10D0B0F5A02F8A
:10122000286810D020F480302860286820F48020BE
:1012300028606068A8B1FFF717FB06460DE0286834
:1012400040F48030F4E740F480202860F7E700BFE6
:10125000FFF70AFB801B642873D828688003F7D542
:101260000CE0FFF701FB064605E000BFFFF7FCFAC4
:10127000801B6428F0D828688003F7D42078DFF832
:10128000AC8280074FF0000A3ED5A748001D0168D8
:1012900011F00C0F08D00068C0F3810002280BD1B8
:1012A000D9F80000400207D42868800716D5E06806
:1012B000012800D112E033E1E068B8B10120C8F89C
:1012C0000000FFF7D1FA064605E000BFFFF7CCFAB1
:1012D000801B0228C0D828688007F7D528682169B4
:1012E00020F0F80040EAC10028600DE0C8F800A036
:1012F000FFF7BAFA064604E0FFF7B6FA801B0228A9
:101300001FD828688007F7D42078000722D5864F99
:1013100087486169703771B101210160FFF7A4FA54
:10132000064604E0FFF7A0FA801B022809D83868B7
:101330008007F7D50EE0C0F800A0FFF795FA064643
:1013400005E082E0FFF790FA801B02287DD838681C
:101350008007F7D42078400768D5DFF8CCB10027A4
:101360000BF13C0BDBF80000C0000BD4DBF80010E5
:1013700041F08051CBF80010DBF80000012700F0AD
:10138000805000906B4E3068C00510D4306840F437
:1013900080703060FFF768FA009005E0FFF764FAAC
:1013A0000099401A022850D83068C005F6D55E4E24
:1013B000A0686C3601280FD00528306810D020F0C6
:1013C00001003060306820F004003060A068B8B1DF
:1013D000FFF74AFA00900FE0306840F00100F4E7B0
:1013E00040F004003060F7E7FFF73EFA0099411A39
:1013F00041F28830814266D830688007F4D50EE02B
:10140000FFF732FA009007E0FFF72EFA0099411A31
:1014100041F28830814256D830688007F4D42FB129
:10142000DBF8001021F08051CBF80010A069C8B3A0
:101430003D49091D0968C1F3810102294AD00228EA
:10144000504607D0C8F8600000E03CE0FFF70CFA17
:1014500004463BE04746C8F86000FFF705FA064639
:1014600005E000BFFFF700FA801B02282BD8286890
:101470008001F7D4D4E907010843A16A2E4A49083C
:1014800002EB0141626A41EA8211084394F82C1090
:1014900040EA0161C9F8001001203866FFF7E4F95D
:1014A000044606E03EE000BFFFF7DEF9001B02281D
:1014B00009D828688001F7D534E000BFFFF7D4F9D8
:1014C000001B022802D90320BDE8F88F286880019C
:1014D000F4D427E00128F7D0D9F80000E26900F43D
:1014E000800191421CD1226A00F03F01914217D144
:1014F00047F6C071626A0140B1EB821F10D1A26A47
:101500004FF0FF3300F4403103EB5202B1EB024FD6
:1015100006D194F82C1000F07060B0EB016F01D090
:101520000120D1E70020CFE7043802400000474205
:10153000800E4742007000400000FFFF10B5401EC3
:10154000B0F1807F01D3012010BD4FF0E024606135
:101550000F21601700F008FC0020A0610720206127
:10156000002010BD70B5040004D094F83D000025A3
:1015700010B106E0012070BD84F83C50204600F018
:1015800023F8242084F83D002068C16821F400512C
:10159000C160204600F010FB2068016921F49041F1
:1015A00001612068416921F02A0141612068C16818
:1015B00041F40051C1602564202084F83D0084F886
:1015C0003E00002070BD000010B586B00446142116
:1015D0006846FEF72FFE13492068884220D1124842
:1015E0000021026842F020020260006800F0200042
:1015F00005900D481438026842F004020260006849
:1016000000F004000590C02000900220CDE9010107
:10161000032003900820049069460448FFF71EF851
:1016200006B010BD001401404438024000080240DA
:101630002DE9F843044690F83D001F4616460D4636
:1016400020284CD1C5B1BEB194F83C00012846D049
:10165000012084F83C004FF00008C4F840802120AD
:1016600084F83D00FFF700F9A6848146E684A0686F
:10167000B0F5805F03D004E00120BDE8F883206965
:1016800028B12E465FF0000584F83C800EE000266D
:10169000FAE78021204600F015FBA0B9AEB116F89C
:1016A000010B21684860E08C401EE084E08C4B46D2
:1016B0004FF0000200970028EBD14FF04001204688
:1016C00000F000FB30B10320D7E735F8020BC0F380
:1016D0000800E6E7202084F83D000020CDE7022046
:1016E000CBE7FEE701684A69D24352050FD46FF495
:1016F00080624A61002140F8301F202242738173CA
:10170000026942F004020261017301207047002067
:10171000704700002DE9F84F0446C06A1E46934604
:101720000D4621680A6842F480620A60082807D0E2
:10173000012805D010F5803F02D0206B112804D17C
:101740002068016841F4807101604FF001195B4627
:10175000002249462046009600F0C6F84FF4007873
:1017600040B120680068C00501D5C4F8408003205E
:10177000BDE8F88F2069DFF884A0B0F5804F0FD066
:101780000620216800EAD51747F0F00008613346CB
:101790005A460AF10601204600F0DAF858BB03E089
:1017A000E8B240F001001CE02168E8B2086133466D
:1017B0005A465146204600F0CBF8E0B9206841690E
:1017C00081690091016841F4807101605B460022EB
:1017D00049462046009600F087F80028C1D147F01E
:1017E000F1002168086133465A465146204600F010
:1017F000AFF80028BCD00120BAE7000002000100C9
:10180000F8B50446C06A1E460D461746082807D09C
:10181000012805D010F5803F02D0206B122804D19A
:101820002068016841F480710160134600224FF086
:1018300001112046009600F057F840B1206800687A
:10184000C00502D54FF4007020640320F8BD206964
:10185000B0F5804F0ED00620216800EAD51040F088
:10186000F000086133463A460B49204600F070F814
:1018700078B902E005F0FE0000E0E8B221680861F6
:10188000054933463A46891F204600F061F8002892
:10189000DCD00120F8BD00000800010070B516463C
:1018A0000D4604460DE02046FFF71CFF08B101205D
:1018B00070BD681C05D0FEF7D7FF801BA84207D873
:1018C00035B120684069C0434007ECD4002070BDAA
:1018D000002044F8300F20216173A073216941F08A
:1018E000200121612073E2E72DE9F0471E46904672
:1018F0000D460446C1F30747DDF8209008E0701C50
:1019000006D0FEF7B1FFA0EB0900B0420FD876B1C8
:101910002068012F18D0806925EA00000004000C1F
:1019200014D000214145EAD00020BDE8F087002016
:1019300044F8300F20216173A073216941F0200128
:10194000216120730120F0E74069E5E70121E9E723
:101950002DE9F0479A4691460E46044600254FF081
:101960002008C1F3074725E020684069C0434005CF
:1019700014D42068016841F40071016021686FF49B
:1019800080604861256384F83D8084F83E50206C77
:1019900040F00400206484F83C501FE0B9F1FF3FA0
:1019A00008D0FEF761FFA0EB0A0149450CD8B9F158
:1019B000000F09D02068012F13D0806926EA0000AB
:1019C0000004000C0BD0CFE744F8305F84F80D80A2
:1019D000A573206940F02000206125730120BDE837
:1019E000F0874069EAE72DE9F041002590460E4670
:1019F0000446202717E04069C043C0060CD454F8C1
:101A0000301B6FF01000486144F810596777A577D4
:101A1000206A2062257717E0FEF726FFA0EB08007A
:101A2000B04208D83EB120684169C9434906E2D4B2
:101A30000020BDE8F08144F8305F6773A57320692A
:101A400040F02000206125730120F2E770B51646B2
:101A50000D4604460DE02046FFF744FE08B1012084
:101A600070BD681C05D0FEF7FFFE801BA84207D89A
:101A700035B120684069C0430006ECD4002070BD39
:101A8000002044F8300F20216173A073216941F0D8
:101A9000200121612073E2E770B586B01421684609
:101AA000FEF7C8FB1A480024016841F002010160FA
:101AB000016801F002010591016841F0080101602F
:101AC000016801F008010591016841F0040101601D
:101AD000016801F004010591016841F00101016014
:101AE00000680C4E00F001004FF4C0450590002244
:101AF00029463046FEF7B2FE01200095CDE90104EB
:101B0000694630460394FEF7A9FD06B070BD00009B
:101B100030380240000C0240FEE7FEE77047704795
:101B2000FFF7DEB910B592B030216846FEF782FBB0
:101B300014210CA8FEF77EFB19480024016841F02F
:101B400080510160006800F08050119015480168D4
:101B500041F4804101600068069400F480401190D7
:101B60000220009001200390102004906846FFF7A7
:101B70002FFB08B172B6FEE70F20CDE90C044FF43D
:101B8000A050CDE90E404FF48050109000210CA8D9
:101B9000FFF734FA002801D072B6FEE712B010BD8C
:101BA00040380240007000400248016841F4700172
:101BB0000160704788ED00E070B504460068016977
:101BC000E26821F44051114301612169A068E26992
:101BD00008436169114308432168CA6849F20C63EC
:101BE0009A430243CA6020684169A26921F44071A6
:101BF0001143416131492068884202D0304988420E
:101C000002D1FFF7A5FA01E0FFF792FAE26900239B
:101C1000192164253226B2F5004F626828D0A0FB56
:101C20000101930F9200FEF7CDFA0146B0FBF5F0EB
:101C30006FF01802504301EB800006EB0010B0FB80
:101C4000F5F000F0F002B1FBF5F002EB0012B1FB91
:101C5000F5F06FF01803584301EB800006EB00101D
:101C6000B0FBF5F000F00F0021681044886070BDF3
:101C7000A0FB010192185B41FEF7A4FA0146B0FBFC
:101C8000F5F00201B1FBF5F06FF01803584301EBDA
:101C9000800006EBC000B0FBF5F000F0F80002EBAE
:101CA0004002B1FBF5F0584301EB800006EBC000A9
:101CB000B0FBF5F000F00700D6E70000001001408F
:101CC000001401402DE9F041984617460E4604469F
:101CD000069D27E0681C25D02DB1FEF7C5FDA0EBC1
:101CE0000800A8421ED920680C3050E8001F21F4DB
:101CF000D07140E80012002AF5D12068143050E875
:101D0000001F21F0010140E80012002AF5D1202037
:101D100084F83D0084F83E00002084F83C00032055
:101D2000BDE8F0812068006836EA000004D0002099
:101D3000B842CFD00020F3E70120F9E7FEE700002A
:101D40000FB4084B10B504A902AA039800F02CF8B0
:101D5000044602A9002000F0C8F9204610BC5DF836
:101D600014FB0000EB2000080907090E002804DB23
:101D700000F1E02080F80014704700F00F0000F13F
:101D8000E02080F8141D704702E008C8121F08C147
:101D9000002AFAD170477047002001E001C1121FEC
:101DA000002AFBD1704700002DE9FF4F8BB0884619
:101DB0000546002606E025280BD0DDE90D129047E8
:101DC0006D1C761C28780028F5D10FB03046BDE890
:101DD000F08F0024A146A2460122AE4900E0044350
:101DE00015F8013F203B02FA03F00842F7D12878AA
:101DF0002A2810D06FF02F022878A0F1300109298D
:101E000015D809EB890102EB410144F0020400EB13
:101E100001096D1CF0E758F8041B5FEA010903D5BE
:101E200044F40054C9F1000944F002046D1C287800
:101E30002E2817D115F8010F44F004042A280ED0DB
:101E40006FF02F022878A0F1300109290AD80AEB97
:101E50008A0102EB410100EB010A6D1CF2E758F820
:101E600004AB6D1C28786C280FD006DC4C2817D0EA
:101E700068280DD06A2814D104E0742810D07A287C
:101E80000FD10DE044F400140AE044F4801401E0A2
:101E900044F440146978814202D104F580146D1C29
:101EA0006D1C2878692865D006DC00288DD0632851
:101EB00027D0642806D15DE06E2808D073282AD088
:101EC000752877D0DDE90D129047761CE0E0C4F369
:101ED0000250022809D003280DD0D8F80010042899
:101EE0000DD00E6008F10408D2E0D8F80010F21707
:101EF000C1E90062F6E7D8F800100E80F2E70E7034
:101F0000F0E718F8041B8DF8001000208DF8010090
:101F1000EB46012003E058F804BB4FF0FF306107A7
:101F20004FF0000701D40AE07F1C57450DDA8742C5
:101F3000FADB1BF807100029F6D106E07F1C874268
:101F4000FCDB1BF807100029F8D1DDE90D23A9EB14
:101F500007008146214600F0B1F83044C61904E07C
:101F6000DDE90D121BF8010B90477F1EF8D22146C8
:101F7000484688E058F8040BC4F302514FF00A0BAE
:101F8000032900D100B2042900D140B2002802DAAE
:101F900040422D2102E0210505D52B218DF824108A
:101FA000012104E006E0E10710D02021F6E708AFA8
:101FB000089113E058F8040BC4F302514FF00A0BD8
:101FC000032900D180B2042900D1C0B20021EEE77C
:101FD0005946FEF779FA303107F8011D0028F7D18C
:101FE000ADEB070000F1200B600702D524F480342C
:101FF00001E04FF0010ADA4502DDAAEB0B0000E038
:102000000020824600EB0B0108980144A9EB010077
:102010000A90E00306D4DDE90D2321460A9800F07A
:102020004DF806444FF0000908E009A911F809002D
:10203000DDE90D12904709F10109761C08998945DF
:10204000F3DBE0030CD5DDE90D2321460A9800F00F
:1020500035F8064404E0DDE90D1230209047761C87
:10206000BAF10001AAF1010AF5DC05E0DDE90D1283
:1020700017F8010B9047761CBBF10001ABF1010B87
:10208000F4DC0A982146DDE90D2300F005F806444A
:102090006D1C97E6092801002DE9F0410446002552
:1020A0001E461746880404D405E039462020B04770
:1020B0006D1C641EF9D52846BDE8F0812DE9F0417C
:1020C000044600251E469046C80301D5302700E08F
:1020D0002027880404D505E041463846B0476D1CEA
:1020E000641EF9D52846BDE8F0810A68531C0B60D0
:1020F000107070472DED088B82B0FEF7F9FEFFF7E8
:1021000011FDFFF7C9FC6748654900240160664975
:10211000C0E901144FF48045C0E90345446184617E
:10212000C4610462FEF7A6FB08B172B6FEE75D4823
:102130005E49543001604FF4E131C0E901140C21D3
:10214000C460C0E904418461C461FFF70BFA08B1BF
:1021500072B6FEE7564CFE2064232070F3206070B8
:10216000052280214F48FEF749FCDFF848814FF4F3
:102170007A7660B9A9460027454649462846FEF7C3
:1021800065FB3046FEF758FA7F1C032FF5DB484FFE
:102190004FF0640ABF1EC3463D469FED478B9FED3F
:1021A000489B4FF0F5099FED48AB9FED49BB0123DC
:1021B000621C80213B480096FEF7C6FD6420FEF7B6
:1021C0003BFA3B4AD0460223921E80213548CDF887
:1021D00000A0FEF7C9FC7878397800EB012080B2C6
:1021E000A880FEF74BF953EC182BFEF7D5F853EC0B
:1021F000192BFEF72AF8FEF74EF9E88084F80190D3
:102200000123621C802127480096FEF79DFD642073
:10221000FEF712FA264A0223921E80212148CDF8A9
:102220000080FEF7A1FC7878397800EB012080B2BD
:10223000A880FEF723F953EC1A2BFEF7ADF853EC08
:102240001B2BFEF702F8FEF726F928814FF4005108
:102250005846FEF7FBFA3046FEF7EEF91148EA88D9
:102260001DA19830FFF76CFD0E4982B298313346BC
:10227000A1F14400FFF7DCF90A482A8919A1CA3004
:10228000FFF75EFD074982B2CA313346A1F17600FD
:10229000FFF7CEF94FF4FA70FEF7CEF987E70000AA
:1022A000005800401C000020A086010000140140DE
:1022B00002000020000C024094F6065F984C653F37
:1022C000CDCCCCCCCC6C47C0C58F31772D215F3FB6
:1022D00000000000000018C054656D70203D2025EE
:1022E000640D0A005248203D2025640D0A000000BC
:1022F00000000000000000000102030406070809B6
:102300000000000001020304282300080000002050
:102310001C000000881D0008442300081C00002049
:10232000FC040000981D00080000000000000000F0
:10233000000000000100000010000000000000008C
:042340000024F40081
:040000050800018965
:00000001FF
